:020000040800F2
:100000000080002051340008D5040008D7040008FF
:10001000D9040008DB040008DD040008000000002B
:10002000000000000000000000000000DF040008E5
:10003000E104000800000000E3040008E5040008F3
:10004000A1340008A1340008A1340008A13400083C
:10005000A1340008A1340008A1340008A13400082C
:10006000A1340008A1340008A1340008A13400081C
:10007000A1340008A1340008A1340008A13400080C
:10008000A134000800000000A1340008A1340008D9
:10009000A1340008A1340008A1340008A1340008EC
:1000A000A1340008A1340008A1340008A1340008DC
:1000B000A1340008A1340008A1340008A1340008CC
:1000C000A1340008A1340008A1340008A1340008BC
:1000D000A1340008A1340008A1340008A1340008AC
:1000E000A1340008A1340008A1340008A13400089C
:1000F000A1340008A1340008A13400080000000069
:1001000000000000A134000800000000A134000835
:10011000A134000800000000A1340008A134000848
:10012000A1340008A1340008A1340008A13400085B
:10013000A13400080000000000000000A134000805
:10014000A1340008A13400080000000000000000F5
:10015000000000000000000000000000000000009F
:10016000000000000000000000000000A1340008B2
:10017000A1340008000000000000000000000000A2
:1001800000000000A1340008000000000000000092
:10019000000000000000000000000000000000005F
:1001A0000000000000000000A1340008A134000895
:1001B000A1340008A1340008A134000800000000A8
:1001C00000000000A1340008000000000000000052
:0801D000A1340008A13400086D
:1001D80053B94AB9002908BF00281CBF4FF0FF31A6
:1001E8004FF0FF3000F00CB8ADF1080C6DE904CE0B
:1001F80003F080F9DDF804E0DDE9022304B070477C
:10020800704700BF0348044B834202D0034B03B13D
:10021800184770470C0000200C0000200000000068
:100228000548064B1B1AD90F01EBA301491002D050
:10023800034B03B1184770470C0000200C00002046
:100248000000000010B5064C237843B9FFF7DAFF29
:10025800044B13B10448AFF300800123237010BD91
:100268000C00002000000000B837000808B5054B56
:100278001BB105490548AFF30080BDE80840FFF70A
:10028800CFBF00BF0000000010000020B8370008F2
:1002980072B6FEE700B595B03822002106A803F033
:1002A800FCF800200190029003900490059001F062
:1002B800E5FB022306934FF48072099240220A92CA
:1002C8000D930E9304220F925522109211931293BC
:1002D800139306A800F09AFD80B90F230193032316
:1002E8000293002303930493059304210DEB01006B
:1002F80001F042F820B915B05DF804FBFFF7C8FF1C
:10030800FFF7C6FF08B500F033FDFFF7C3FF00F0A5
:100318000BF800F02BF802F013F902F049FD02F097
:10032800B3FD02F06BFEFEE784B00F4BDA6C42F0CF
:100338000102DA64DA6C02F001020192019ADA6CC5
:1003480042F00402DA64DA6C02F004020292029AC1
:10035800DA6C42F00202DA64DB6C03F00203039306
:10036800039B04B0704700BF0010024010B58CB06A
:10037800002409940A940B942022214601A803F032
:100388008CF82D484FF0A04303604FF4403343608E
:100398008460C4600461012343610423836104779A
:1003A80044770323036280F82440C462046380F81E
:1003B8003840C46380F8404000F0DEF800282BD1B4
:1003C8000023099309A91C4800F020FC38BB1B4BEB
:1003D800019306230293002303937F2204920422AD
:1003E800059206930DEB0201134800F0DFF9C8B936
:1003F800134B01930C23029301A90F4800F0D6F97F
:1004080098B9104B01931223029301A90A4800F0EE
:10041800CDF968B90CB010BDFFF73AFFD0E7FFF788
:1004280037FFD4E7FFF734FFE2E7FFF731FFE8E7EC
:10043800FFF72EFFEEE700BF28000020020030047F
:10044800040060080800900C10B598B0044600211C
:1004580013911491159116911791442202A803F053
:100468001CF82368B3F1A04F01D018B010BD4FF4A9
:10047800004302934FF00053119302A801F0A2F831
:10048800F0B9114BDA6C42F40052DA64DA6C02F417
:1004980000520092009ADA6C42F00102DA64DB6CD6
:1004A80003F001030193019B072313930323149380
:1004B8000023159313A94FF0904001F0F5F9D4E704
:1004C800FFF7E6FEDDE700BF00100240FEE7FEE7AB
:1004D800FEE7FEE7FEE770477047704708B500F093
:1004E80057FC08BD00B583B00B4B1A6E42F00102F1
:1004F8001A661A6E02F001020092009A9A6D42F092
:1005080080529A659B6D03F080530193019B01F023
:100518003BFB03B05DF804FB0010024010B4303020
:100528000B0A9B0003F00C03C45801F01F014FF0A5
:100538001F0C0CFA01FC24EA0C0CC2F384628A40FA
:100548004CEA0202C2505DF8044B704710B41430F4
:100558004B0E9B0003F00403C458C1F304514FF041
:10056800070C0CFA01FC24EA0C0C8A404CEA020243
:10057800C2505DF8044B704730B583B00023019337
:10058800002800F007810446C36D13B323689A68F6
:1005980012F0005F05D09A6822F0204222F03F0254
:1005A8009A602268936813F0805F1FD1936823F0E4
:1005B800104323F03F0343F080539360764B1B684E
:1005C8009B09764AA2FB03239B0901335B00019335
:1005D80009E0FFF739FF0023236684F85830D5E790
:1005E800019B013B0193019B002BF9D12268936881
:1005F80013F0805F40F09680E36D43F01003E365ED
:10060800236E43F0010323660120936813F004036B
:1006180000D00123E16D11F0100F40F0B480002BE1
:1006280040F0B180E36D23F4817343F00203E36586
:10063800936813F0010F15D14FF0A0439A6812F098
:10064800010200D00122564B9B6813F0010300D031
:100658000123134306D1636852498A6822F47C1245
:1006680013438B60627FE36B43EA4233E2681343D0
:10067800A268134394F8242043EA0243012A53D082
:10068800E26A22B102F47872216B0A4313432168AB
:10069800CD68454A2A401A43CA602268136923F084
:1006A8004063616B0B4313612268936813F008037E
:1006B80000D001233BBB237F94F83810490041EA5E
:1006C8008331D36823F4804323F002030B43D360C0
:1006D800236973B32268136943F480331361226872
:1006E800D2F8C03023F47F5323F03F0321690B4332
:1006F800C2F8C03094F84030012B29D02268136921
:1007080023F0010313616369012B33D02268136B53
:1007180023F00F031363E36D23F0030343F0010396
:10072800E36535E0002070E7A26A013A43EA4243F4
:10073800A6E72268136923F4803313612268D2F88C
:10074800C03023F47F5323F03F03C2F8C030D1E711
:1007580021680B6923F4FF6323F00403626CA56C22
:100768002A43E56C2A43256D2A43134343F00103CA
:100778000B61C8E721680B6B23F00F03226A013A6B
:1007880013430B63C7E7E36D43F01003E3650120F0
:1007980003B030BD0120FBE708000020632D3E05B3
:1007A80000010050000300500740F0FFF0B583B08F
:1007B8000023019390F85830012B00F01C82044666
:1007C8000D46012380F858300068836813F0040F41
:1007D80009D0E36D43F02003E3650120002384F88A
:1007E800583003B0F0BD0A684968FFF797FE2068E3
:1007F800836813F0040300D00123866816F0080606
:1008080000D00126002B3ED1002E3CD1AA68B2F1BF
:10081800004F6FD02968FFF799FE2268536923F0CB
:100828000043536169692268D368C3F3C1035B005D
:100838009940286904286AD0603252F82070AB4B7E
:100848003B402F6807F0F84C41EA0C010B4343F09A
:10085800004342F8203023682869AA69603353F8B6
:10086800201021F080710A4343F820202368296969
:100878002A7F012A48D0603353F8212022F00072E1
:10088800324343F821202268936813F0010F16D1F0
:100898002B68E868D2F8B010C3F3120621EA060103
:1008A80000F018069248F0400340C3F312030B43CC
:1008B800C2F8B030EA688F4B9A4200F08F802B68FC
:1008C8008D4A134200F08F818C4A926802F0E071E1
:1008D8008B48834200F03E818A48834200F03A8187
:1008E8008948834200F05C818848834200F06A812D
:1008F800002073E700222968FFF728FE2268536961
:1009080043F0004353618DE74FF00076B3E7136E71
:10091800116EC1F384612B68C3F3120078BBC3F373
:100928008463994233D021684B6E4A6EC2F3846265
:100938002B68C3F3120078BBC3F384639A4233D0A5
:1009480021688B6E8A6EC2F384622B68C3F312002F
:1009580078BBC3F384639A4233D02168CB6ECA6EE6
:10096800C2F384622B68C3F3120078BBC3F38463B9
:100978009A4288D1CB6E23F00043CB6683E793FA83
:10098800A3F313B1B3FA83F3CBE72023C9E7136EBC
:1009980023F000431366C6E793FAA3F313B1B3FA3F
:1009A80083F3CBE72023C9E74B6E23F000434B6664
:1009B800C6E793FAA3F313B1B3FA83F3CBE7202383
:1009C800C9E78B6E23F000438B66C6E793FAA3F35F
:1009D80013B1B3FA83F3CBE72023C9E720682B6868
:1009E800C3F3120626BB9A0E013202F01F02092A2F
:1009F8008CBF00220122002A52D046BB990E013139
:100A0800890601F0F84176BB9F0E013707F01F07F2
:100A18000122BA401143AEBB9B0E013303F01F0302
:100A280003EB43031B051943AA68FFF78FFD46E74D
:100A380093FAA3F24AB1B2FA82F2013202F01F022B
:100A4800092A8CBF00220122D5E72022F5E793FA74
:100A5800A3F131B1B1FA81F10131890601F0F84110
:100A6800D1E72021F8E793FAA3F24AB1B2FA82F269
:100A7800013202F01F024FF0010C0CFA02F2C9E732
:100A88002022F5E793FAA3F343B1B3FA83F30133D2
:100A980003F01F0303EB43031B05C4E72023F6E71A
:100AA800CEB9990E0131890601F0F84196BB9F0E27
:100AB800013707F01F070122BA401143CEBB9B0E36
:100AC800013303F01F0303EB43031E3B1B0543F0F5
:100AD80000731943A8E793FAA3F1C9B1B1FA81F1F8
:100AE8000131890601F0F841E0E700BF00F0FF039B
:100AF800FFFF070000007F4000000880000300504F
:100B0800000021C31000C090000052C7000084CB31
:100B18002021E5E793FAA3F24AB1B2FA82F2013250
:100B280002F01F024FF0010C0CFA02F2C5E7202276
:100B3800F5E793FAA3F35BB1B3FA83F3013303F058
:100B48001F0303EB43031E3B1B0543F00073C0E781
:100B58002023F3E712F4000F7FF4C2AE2368B3F149
:100B6800A04F01D0002039E641F40001234A9368E0
:100B780023F0E07319439160214B1B689B09214ABC
:100B8800A2FB03239B09013303EB43039B0001935F
:100B9800019B1BB1019B013B0193F9E700201DE676
:100BA80012F0807F7FF4A0AE2268174B9A421CD0C7
:100BB80041F08071114A936823F0E0731943916002
:100BC80000200BE612F4800F11D122680E4B9A42D6
:100BD8000FD041F4800309498A6822F0E072134378
:100BE8008B600020FAE50020F8E50020F6E50020FB
:100BF800F4E50020F2E50220F3E500BF0003005011
:100C080008000020632D3E050001005090F8582090
:100C1800012A7FD010B49DB00346012280F85820E5
:100C28000022189219920068B0F1A04F39D0002222
:100C38000192019A002A37D0926812F0040200D07B
:100C48000122806810F0040F54D1002A52D10A689A
:100C5800002A32D0304CA26822F46042486893F8E7
:100C680038C040EA4C300243A2604FF0A04290687E
:100C780010F0010000D00120284A926812F0010209
:100C880000D00122024341D1234CA26822F47162B0
:100C980022F00F020868896801430A43A260002015
:100CA8002DE01E4A0192C4E7DA6D42F02002DA65AF
:100CB800002283F85820012024E017498A6822F48A
:100CC80060428A604FF0A042916811F0010100D0A3
:100CD8000121124A926812F0010200D001220A434F
:100CE80016D10D498A6822F4716222F00F028A60D7
:100CF800002004E0DA6D42F02002DA6501200022CB
:100D080083F858201DB05DF8044B70470020F6E7C3
:100D18000020F4E702207047000300500001005053
:100D2800104B1B680BB90120704710B504464FF4EF
:100D38007A70B0FBF3F30C4A1068B0FBF3F000F0E4
:100D480081FF68B90F2C01D901200AE00022214651
:100D58004FF0FF3000F066FF044B1C60002000E0FD
:100D6800012010BD00000020080000200400002021
:100D780010B5032000F044FF0F20FFF7D1FF10B19A
:100D88000124204610BD0446FFF7ACFBF9E700003C
:100D9800034A1368034909680B441360704700BF8E
:100DA8009400002000000020014B1868704700BF25
:100DB80094000020124BDA6802F00302DB68C3F3E8
:100DC80003130133032A11D00E48B0FBF3F00C4B88
:100DD800DB68C3F3062303FB00F0094BDB68C3F3AE
:100DE800416301335B00B0FBF3F070470648B0FB8A
:100DF800F3F0034BDB68C3F3062303FB00F0ECE7D7
:100E0800001002400024F40000127A00002800F0CC
:100E18004F8270B582B00446036813F0010F37D0D3
:100E2800A44A936803F00C03D26802F003020C2B67
:100E380023D0082B23D06368B3F5803F4ED0B3F599
:100E4800A02F51D09B4B1A6822F480321A601A687E
:100E580022F480221A606368002B52D0FFF7A4FFA7
:100E68000546944B1B6813F4003F11D1FFF79CFF14
:100E7800401B6428F5D9032023E2032AD9D18D4BDE
:100E88001B6813F4003F03D06368002B00F0128244
:100E9800236813F0020F5DD0864A936803F00C03B1
:100EA800D26802F003020C2B3AD0042B3AD0E36844
:100EB800002B75D07F4A136843F480731360FFF7E3
:100EC80073FF05467B4B1B6813F4806F5FD1FFF7F8
:100ED8006BFF401B0228F5D90320F2E1754A13681D
:100EE80043F480331360B6E703F18043A3F53C3342
:100EF8001A6842F480221A601A6842F480321A6032
:100F0800A9E7FFF751FF05466A4B1B6813F4003F3A
:100F1800BED0FFF749FF401B6428F5D90320D0E174
:100F2800022AC2D1634B1B6813F4806F03D0E368B5
:100F3800002B00F0C1815F4A536823F0FE4321690A
:100F480043EA016353605C4B1868FFF7E9FE002829
:100F580040F0B481236813F0080F4CD063699BB349
:100F6800544AD2F8943043F00103C2F89430FFF7A2
:100F78001BFF05464F4BD3F8943013F0020F3AD1BC
:100F8800FFF712FF401B0228F4D9032099E1494AD0
:100F9800536823F0FE43216943EA01635360D9E7AC
:100FA800444A136823F480731360FFF7FDFE054677
:100FB800404B1B6813F4806FCCD0FFF7F5FE401B45
:100FC8000228F5D903207CE13A4AD2F8943023F07C
:100FD8000103C2F89430FFF7E7FE0546354BD3F816
:100FE800943013F0020F06D0FFF7DEFE401B0228F4
:100FF800F4D9032065E1236813F0040F00F0818021
:101008002C4B9B6D13F0805F36D12A4B9A6D42F0C2
:1010180080529A659B6D03F080530193019B0125D3
:10102800264B1B6813F4807F28D0A368012B39D086
:10103800052B45D01F4BD3F8902022F00102C3F8AE
:101048009020D3F8902022F00402C3F89020A368DF
:10105800002B43D0FFF7A8FE0646164BD3F8903076
:1010680013F0020F4CD1FFF79FFE801B41F288332B
:101078009842F2D9032024E10025D1E70F4A1368EA
:1010880043F480731360FFF78FFE06460B4B1B6813
:1010980013F4807FC9D1FFF787FE801B0228F5D99A
:1010A80003200EE1034AD2F8903043F00103C2F85E
:1010B8009030CCE70010024004000020007000408F
:1010C800884BD3F8902042F00402C3F89020D3F85C
:1010D800902042F00102C3F89020B8E7FFF764FEC1
:1010E8000646804BD3F8903013F0020F08D0FFF774
:1010F8005BFE801B41F288339842F2D90320E0E07E
:10110800E5B9236813F0200F35D0A369E3B1754A18
:10111800D2F8983043F00103C2F89830FFF744FE44
:101128000546704BD3F8983013F0020F23D1FFF720
:101138003BFE401B0228F4D90320C2E0694A936DA4
:1011480023F080539365DCE7664AD2F8983023F0A1
:101158000103C2F89830FFF727FE0546614BD3F824
:10116800983013F0020F06D0FFF71EFE401B02282E
:10117800F4D90320A5E0E369002B00F0A180594AC7
:10118800926802F00C020C2A64D0022B13D0554A44
:10119800136823F080731360FFF706FE0446514B73
:1011A8001B6813F0007F4ED0FFF7FEFD001B0228DE
:1011B800F5D9032085E04B4A136823F08073136048
:1011C800FFF7F2FD0546474B1B6813F0007F06D07A
:1011D800FFF7EAFD401B0228F5D9032071E0414AD8
:1011E800D36841491940236A606A013843EA001309
:1011F800A06A43EA0023206B4008013843EA4053C1
:10120800606B4008013843EA4063E06A43EAC06320
:101218001943D160136843F080731360D36843F0B7
:101228008073D360FFF7C0FD04462E4B1B6813F094
:10123800007F06D1FFF7B8FD001B0228F5D903206F
:101248003FE000203DE0274AD168284B0B40D3609F
:10125800002036E0012B36D0224BDB6803F0030177
:10126800226A914231D103F0F002616A0139B2EB8E
:10127800011F2CD103F4FE42A16AB2EB012F28D141
:1012880003F07842E16AB2EBC16F24D103F4C001E4
:10129800226B5208013AB1EB425F1ED103F0C063E2
:1012A800626B5208013AB3EB426F18D1002008E094
:1012B80001207047012004E0012002E0012000E045
:1012C800002002B070BD0120FBE70120F9E70120F2
:1012D800F7E70120F5E70120F3E70120F1E7012016
:1012E800EFE700BF001002400C809F01FCFFEEFEFC
:1012F8001E4B9B6803F00C03042B33D01B4B9B68DD
:1013080003F00C03082B2FD0184B9B6803F00C0339
:101318000C2B01D000207047144BDA6802F003024E
:10132800DB68C3F303130133032A11D01048B0FB61
:10133800F3F00E4BDB68C3F3062303FB00F00B4B03
:10134800DB68C3F3416301335B00B0FBF3F0704724
:101358000848B0FBF3F0054BDB68C3F3062303FB37
:1013680000F0ECE70248704702487047001002405E
:101378000024F40000127A00002800F0E680F8B596
:101388000C460546744B1B6803F00F038B420BD2C7
:10139800714A136823F00F030B431360136803F0BB
:1013A8000F038B4240F0D3802E6816F001065FD001
:1013B8006B68032B2FD0022B4DD0684B1B6813F49E
:1013C800806F00F0C680FFF793FF654B98424DD9B8
:1013D800624A936823F0F00343F080039360802609
:1013E8005E4A936823F0030369680B439360FFF731
:1013F800DBFC0746594B9B6803F00C036A68B3EBA8
:10140800820F35D0FFF7D0FCC01B41F288339842D9
:10141800F0D9032078E0514B1B6813F0007F01D10D
:10142800012071E0FFF7C6FC4D4B98421AD94B4B8F
:101438009B6813F0F00F05D02E6816F00206CFD087
:10144800AB688BB9454A936823F0F00343F08003F7
:1014580093608026C4E7414B1B6813F4003FB2D168
:10146800012051E00026BBE70026B9E70026B7E7D0
:101478002B6813F0020F48D013F0040F04D0374A3A
:10148800936843F4E06393602B6813F0080F06D069
:10149800324A936823F47C5343F4E06393602F4A01
:1014A800936823F0F003A9680B4393602A4B1B68E9
:1014B80003F00F03A34230D82B6813F0040F06D0B3
:1014C800264A936823F4E063E9680B4393602B682A
:1014D80013F0080F07D0214A936823F46053296951
:1014E80043EAC1039360FFF703FF1C4B9B68C3F3F8
:1014F80003131C4AD35C03F01F03D8401A4B18602F
:101508001A4B1868FFF70CFCF8BD802ECED1134A91
:10151800936823F0F0039360C8E70F4A136823F039
:101528000F0323431360FFF73FFC06460A4B1B6873
:1015380003F00F03A342BFD0FFF736FC801B41F234
:1015480088339842F2D90320DEE701207047012052
:10155800DAE70120D8E700BF00200240001002406F
:1015680000B4C404D8370008080000200400002094
:10157800014B1868704700BF0800002008B5FFF746
:10158800F7FF054B9B68C3F30223044AD35C03F0BF
:101598001F03D84008BD00BF00100240D037000824
:1015A80008B5FFF7E5FF054B9B68C3F3C223044A60
:1015B800D35C03F01F03D84008BD00BF00100240F1
:1015C800D0370008F0B583B00446036813F4002F41
:1015D80069D0AE4B9B6D13F0805F1ED1AB4B9A6DFB
:1015E80042F080529A659B6D03F080530193019BF2
:1015F8000126A74A136843F480731360FFF7D4FBEE
:101608000546A34B1B6813F4807F08D1FFF7CCFB7A
:10161800401B0228F5D9032502E00026E9E700254A
:1016280045BB9A4BD3F8903013F4407315D0226C15
:101638009A4212D0954AD2F8903023F44073D2F8E7
:10164800901041F48031C2F89010D2F8901021F433
:101658008031C2F89010C2F8903013F0010F10D109
:1016680045B98A4AD2F8903023F44073216C0B4371
:10167800C2F89030C6B1854A936D23F080539365C4
:1016880012E0FFF791FB0746804BD3F8903013F038
:10169800020FE5D1FFF788FBC01B41F2883398425F
:1016A800F2D90325DCE70025236813F0010F08D0E1
:1016B800764AD2F8883023F0030361680B43C2F8F6
:1016C8008830236813F0020F08D0704AD2F88830A7
:1016D80023F00C03A1680B43C2F88830236813F089
:1016E800040F08D0694AD2F8883023F03003E16843
:1016F8000B43C2F88830236813F0080F08D0634AF8
:10170800D2F8883023F0C00321690B43C2F888302F
:10171800236813F0200F08D05C4AD2F8883023F4ED
:10172800406361690B43C2F88830236813F0400FA7
:1017380008D0564AD2F8883023F44053A1690B43A5
:10174800C2F88830236813F0800F08D04F4AD2F8C7
:10175800883023F44043E1690B43C2F8883023689A
:1017680013F4807F08D0494AD2F8883023F44033F4
:10177800216A0B43C2F88830236813F4007F08D02D
:10178800424AD2F8883023F44023616A0B43C2F8F6
:101798008830236813F4806F0CD03C4AD2F8883024
:1017A80023F44013A16A0B43C2F88830A36AB3F547
:1017B800801F57D0236813F4006F0CD0334AD2F837
:1017C800883023F44003E16A0B43C2F88830E36AA7
:1017D800B3F5800F4BD0236813F4805F0CD02B4AED
:1017E800D2F8883023F04073216B0B43C2F888305D
:1017F800236BB3F1807F3FD0236813F4005F0CD0D4
:10180800224AD2F8883023F04063616B0B43C2F858
:101818008830636BB3F1006F33D0236813F4804FC3
:101828000CD01A4AD2F8883023F04063A16B0B43DE
:10183800C2F88830A36BB3F1006F2BD0236813F480
:10184800004F0CD0114AD2F8883023F04053E16B96
:101858000B43C2F88830E36BB3F1805F1FD0284692
:1018680003B0F0BDD36843F48013D360A2E7D36814
:1018780043F48013D360AEE7D36843F48013D36096
:10188800BAE7D36843F48013D360C6E70010024078
:1018980000700040D36843F48013D360CEE7D36868
:1018A80043F48033D360DAE7F0B583B0002362E015
:1018B80085685E000324B44025EA0405CC68B4407A
:1018C8002C438460456825EA0C054C68C4F3001471
:1018D8009C402C4344605FE0DD08083550F8254003
:1018E80003F0070C4FEA8C0C4FF00F0E0EFA0CFEAB
:1018F80024EA0E0E0C6904FA0CF444EA0E0440F8CB
:10190800254060E0052400E0002404FA0EF42C438E
:101918000CF1020C554D45F82C40554CA568D443A4
:1019280025EA02064F6817F4801F01D042EA05062F
:101938004F4DAE60ED6804EA05064F6817F4001FC6
:1019480001D042EA05064A4DEE606D6804EA0506D4
:101958004F6817F4003F01D042EA0506444D6E6017
:101968002D682C404E6816F4803F01D042EA0504E9
:101978003F4A146001330A6832FA03F474D04FF016
:10198800010C0CFA03FC1CEA0202F3D04C6804F0C8
:101998000304013C012C8BD94C6804F00304032C8C
:1019A8000CD0C4685D004FF0030C0CFA05FC24EA67
:1019B8000C0C8C68AC4044EA0C04C4604C6804F01D
:1019C8000304022C88D004684FEA430E4FF0030C3E
:1019D8000CFA0EFC24EA0C0C4C6804F0030404FA1C
:1019E8000EF444EA0C0404604C6814F4403FC1D07F
:1019F800204C256E45F001052566246E04F001048F
:101A08000194019C4FEA930C0CF10205174C54F811
:101A1800255003F0030E4FEA8E0E0F2404FA0EF43D
:101A280025EA0405B0F1904F3FF46EAF124CA04286
:101A380012D004F58064A04210D004F58064A0425E
:101A48000ED004F58064A0420CD004F58064A04256
:101A58003FF458AF062458E7012456E7022454E718
:101A6800032452E7042450E703B0F0BD000001400E
:101A7800000401400010024000040048002836D14C
:101A88003E4B1B6803F4C063B3F5806F08D03B4A34
:101A9800D2F8803023F48073C2F880300020704779
:101AA800364AD2F8803023F48073C2F88030136845
:101AB80023F4C06343F400731360314B1B68322274
:101AC80002FB03F32F4AA2FB03239B0C013300E024
:101AD800013B2A4A526912F4806F01D0002BF7D1DA
:101AE800264B5B6913F4806F44D100207047B0F532
:101AF800007F08D0214A136823F4C06343F480634D
:101B08001360002070471D4B1B6803F4C063B3F5D6
:101B1800806F08D0194AD2F8803043F48073C2F835
:101B2800803000207047154AD2F8803043F4807323
:101B3800C2F88030136823F4C06343F40073136061
:101B48000F4B1B68322202FB03F30E4AA2FB03234E
:101B58009B0C013300E0013B084A526912F4806F84
:101B680001D0002BF7D1054B5B6913F4806F03D1CB
:101B78000020704703207047032070470070004022
:101B88000800002083DE1B43024A936843F4804325
:101B98009360704700700040002808DB0901C9B253
:101BA80000F1604000F5614080F80013704700F0D4
:101BB8000F000901C9B2014B1954704714ED00E038
:101BC80000B500F00700C0F1070CBCF1040F28BFF6
:101BD8004FF0040C031D062B0FD9C31E4FF0FF3E18
:101BE8000EFA0CF021EA000199400EFA03FE22EAEF
:101BF8000E0241EA02005DF804FB0023EEE7000054
:101C0800074AD36823F4E0631B041B0C000200F4AA
:101C1800E060034343F0BF6343F40033D36070478D
:101C280000ED00E010B50446054BD868C0F302206B
:101C3800FFF7C6FF01462046FFF7AEFF10BD00BF05
:101C480000ED00E00138B0F1807F0BD24FF0E023C7
:101C58005861054AF02182F8231000209861072274
:101C68001A6170470120704700ED00E030B4026A45
:101C7800036A23F0010303624468836923F4803311
:101C880023F073030D681D4322F002028B6813438F
:101C98001C4A90420FD002F5006290420BD002F528
:101CA8004062904207D002F58062904203D002F56C
:101CB8008062904205D123F00803CA681A4322F0D3
:101CC8000403104A90420FD002F5006290420BD0F4
:101CD80002F54062904207D002F58062904203D03C
:101CE80002F58062904205D124F440744A69224387
:101CF8008C691443446085614A684263036230BC5E
:101D0800704700BF002C014030B4036A026A22F415
:101D1800807202624468C26922F4803222F073023F
:101D28000D68154323F400738A6843EA0223184AAE
:101D3800904203D002F50062904206D123F400637A
:101D4800CA6843EA022323F48063114A90420FD001
:101D580002F5006290420BD002F54062904207D033
:101D680002F58062904203D002F58062904207D16A
:101D780024F440524C6942EA04128C6942EA041481
:101D88004460C5614A68C263036230BC704700BFE3
:101D9800002C014030B4036A026A22F480520262C5
:101DA8004468C26922F0807222F4E6420D6842EA71
:101DB800052223F400538D6843EA0533174DA842E2
:101DC80003D005F50065A84206D123F40043CD6889
:101DD80043EA053323F48043104DA8420FD005F59C
:101DE8000065A8420BD005F54065A84207D005F567
:101DF8008065A84203D005F58065A84207D124F480
:101E0800404C4C694CEA841C8C694CEA841444604C
:101E1800C2614A680264036230BC7047002C01400A
:101E280030B4036A026A22F4803202624468026DA6
:101E380022F4803222F070020D68154323F4003337
:101E48008A6843EA02430F4A90420FD002F50062C3
:101E580090420BD002F54062904207D002F58062B2
:101E6800904203D002F58062904204D124F4803479
:101E78004A6944EA0224446005654A688264036248
:101E880030BC7047002C014030B4036A026A22F467
:101E9800801202624468026D22F0807222F4E042ED
:101EA8000D6842EA052223F400138D6843EA0553BE
:101EB8000F4DA8420FD005F50065A8420BD005F5D7
:101EC8004065A84207D005F58065A84203D005F50E
:101ED8008065A84204D124F480244D6944EA85240D
:101EE800446002654A68C264036230BC704700BF40
:101EF800002C014010B4036A046A24F0010404624F
:101F0800846924F0F00C4CEA021223F00A030B4314
:101F1800826103625DF8044B704710B4036A046A77
:101F280024F010040462846924F4704C4CEA0232F0
:101F380023F0A00343EA0113826103625DF8044BB6
:101F48007047836823F4401323F070030B4343F076
:101F580007038360704770470368304A90420ED089
:101F6800B0F1804F0BD0A2F59432904207D002F521
:101F78008062904203D002F59632904203D123F05A
:101F880070034A681343254A90421AD0B0F1804F33
:101F980017D0A2F59432904213D002F58062904295
:101FA8000FD002F5963290420BD002F54062904273
:101FB80007D002F58062904203D002F58062904219
:101FC80003D123F44073CA68134323F080034A699A
:101FD800134303608B68C3620B6883620F4B98429C
:101FE8000FD003F5006398420BD003F54063984285
:101FF80007D003F58063984203D003F580639842C5
:1020080001D10B69036301234361036913F0010FD5
:1020180003D0036923F0010303617047002C0140DA
:1020280060B310B5044690F83D3013B3022384F82A
:102038003D30214651F8040BFFF78EFF012384F849
:10204800483084F83E3084F83F3084F8403084F8D3
:10205800413084F8423084F8433084F8443084F8BE
:10206800453084F8463084F8473084F83D30002005
:1020780010BD80F83C3000F05FFFD7E701207047C3
:1020880060B310B5044690F83D3013B3022384F8CA
:102098003D30214651F8040BFFF75EFF012384F819
:1020A800483084F83E3084F83F3084F8403084F873
:1020B800413084F8423084F8433084F8443084F85E
:1020C800453084F8463084F8473084F83D300020A5
:1020D80010BD80F83C30FFF73EFFD7E7012070477E
:1020E80030B4036A026A22F010020262446882690C
:1020F80022F0807222F4E6420D6842EA052223F0BB
:1021080020038D6843EA0513174DA84203D005F54F
:102118000065A84206D123F08003CD6843EA051381
:1021280023F04003104DA8420FD005F50065A842E2
:102138000BD005F54065A84207D005F58065A84293
:1021480003D005F58065A84207D124F4406C4C699A
:102158004CEA840C8C694CEA8404446082614A68C5
:102168008263036230BC7047002C014038B590F898
:102178003C30012B00F0958004460D46012380F881
:102188003C30142A00F28880DFE802F00B8686864D
:102198001F86868634868686488686865D868686F7
:1021A80071000068FFF762FD2268936943F0080335
:1021B80093612268936923F0040393612268936909
:1021C80029690B439361002067E00068FFF788FFE7
:1021D8002268936943F4006393612268936923F446
:1021E8008063936122689369296943EA01239361B3
:1021F800002052E00068FFF787FD2268D36943F0AA
:102208000803D3612268D36923F00403D3612268E9
:10221800D36929690B43D36100203EE00068FFF7CA
:10222800B9FD2268D36943F40063D3612268D36996
:1022380023F48063D3612268D369296943EA0123BF
:10224800D361002029E00068FFF7EAFD2268136DDA
:1022580043F0080313652268136D23F00403136524
:102268002268136D29690B431365002015E0006887
:10227800FFF70AFE2268136D43F4006313652268B2
:10228800136D23F4806313652268136D296943EA8B
:1022980001231365002000E00120002384F83C306E
:1022A80038BD0220FCE710B4846824F47F4C42EA6D
:1022B80003220A4342EA0C0282605DF8044B70472D
:1022C80090F83C30012B00F08F8010B504460123B4
:1022D80080F83C30022380F83D3002689068434B18
:1022E800034093600B68702B55D031D8502B6CD0BD
:1022F8000CD9602B2AD1CA6849682068FFF70DFEFF
:1023080060212068FFF71DFE002035E0402B0AD130
:10231800CA6849682068FFF7EDFD40212068FFF78B
:1023280010FE002028E05BD8202B07D003D9302BE3
:1023380004D0012020E00BB1102B05D119462068EC
:10234800FFF7FFFD002017E0012015E0012013E052
:10235800B3F5005F2CD00BD9254A9342EED012D9A1
:10236800244A9342EAD030329342E7D0012003E076
:10237800B3F5805F36D10020012384F83D30002377
:1023880084F83C3010BDB3F1101FD7D0103A9342F7
:10239800D4D00120F0E7CB684A6889682068FFF745
:1023A80082FF2268936843F0770393600020E3E795
:1023B800CB684A6889682068FFF775FF22689368C8
:1023C80043F4804393600020D6E7CA6849682068D0
:1023D800FFF790FD50212068FFF7B3FD0020CBE701
:1023E8000120C9E70120C7E7022070478800CEFF17
:1023F800300010004000100090F83C20012A40D026
:1024080030B40346012280F83C20022280F83D20A7
:102418000068426884681C4DA84203D005F5006531
:10242800A84203D122F470024D682A4322F00072B8
:1024380022F070020D682A4342601A6812488242EC
:1024480012D0B2F1804F0FD0A0F5943082420BD059
:1024580000F58060824207D000F59630824203D0B2
:1024680000F54060824204D124F080048968214349
:102478009160012283F83D20002083F83C0030BCA5
:1024880070470220704700BF002C014090F83C3094
:10249800012B46D010B40246012380F83C30CB68AB
:1024A80023F440738868034323F480634868034334
:1024B80023F400630868034323F480530869034343
:1024C80023F400534869034323F48043086B034310
:1024D80023F47023886943EA004323F08053C869D2
:1024E80003431068104CA04203D004F50064A042D6
:1024F80010D123F470038C6A43EA045323F08073E9
:102508000C6A234323F000734C6A234323F00053DF
:10251800C96A0B434364002082F83C005DF8044B11
:1025280070470220704700BF002C0140034AD2F8D0
:10253800883043F47003C2F88830704700ED00E03B
:1025480008B51748174B03604FF4E1334360002385
:102558008360C36003610C2242618361C3610362CB
:102568004362836200F061FB70B900210C4800F0FF
:10257800D4FB60B900210A4800F0F4FB50B90848C0
:1025880000F0ACFB48B908BDFDF782FEEDE7FDF7AA
:102598007FFEEFE7FDF77CFEF1E7FDF779FEF2E756
:1025A800980000200038014070B59AB00446002118
:1025B80015911691179118911991442204A800F0C9
:1025C8006CFF2268214B9A4201D01AB070BD0123DA
:1025D800049304A8FEF7F6FF002833D11C4B1A6EAB
:1025E80042F480421A661A6E02F480420192019AFD
:1025F800DA6C42F00402DA64DA6C02F00402029245
:10260800029ADA6C42F00202DA64DB6C03F002032D
:102618000393039B10231593022616960024179400
:1026280018940725199515A90A48FFF73DF980233D
:102638001593169617941894199515A90648FFF737
:1026480033F9C2E7FDF724FEC8E700BF00380140B0
:10265800001002400008004800040048026852E8E0
:10266800003F23F4907342E800310029F6D1026854
:1026780002F1080353E8003F23F0805323F00103DD
:10268800083242E800310029F1D1C36E012B06D08F
:102698002023C0F88C300023C36643677047026864
:1026A80052E8003F23F0100342E800310029F6D138
:1026B800EEE7000070B504460168836802691343B9
:1026C80042691343C269134308688B4A02401A439C
:1026D8000A602268536823F44053E1680B4353604F
:1026E800A1692268854B9A4201D0236A19439368ED
:1026F80023F06E4323F430630B4393602268D36A5C
:1027080023F00F03616A0B43D36223687C4A934228
:1027180023D07C4A934234D07B4A93424AD07B4AA6
:10272800934259D0754A934268D0102273498B421C
:1027380000F09580E069B0F5004F00F0D280082ADB
:1027480000F24F81DFE812F01201340110014D014F
:1027580037014D014D014D013A0102F55842D2F8B9
:10276800882002F00302032A09D8DFE802F00204F5
:102778005C060122DAE70422D8E70822D6E710220D
:10278800D4E702F5E632D2F8882002F00C020C2ACF
:102798000ED8DFE802F0070D0D0D090D0D0D4A0DDD
:1027A8000D0D0B000022C1E70422BFE70822BDE798
:1027B8001022BBE702F5E432D2F8882002F030029A
:1027C800202A34D004D8A2B3102A34D10422ADE789
:1027D800302A32D10822A9E702F5E232D2F888205D
:1027E80002F0C002802A2AD004D852B3402A2AD143
:1027F80004229BE7C02A28D1082297E702F5C832AD
:10280800D2F8882002F44062B2F5006F1FD005D8D4
:10281800FAB1B2F5806F1ED1042287E7B2F5406F96
:102828001BD1082282E7022280E702227EE70222E9
:102838007CE700227AE7102278E7102276E7022266
:1028480074E7002272E7102270E710226EE7022276
:102858006CE700226AE7102268E7102266E7082A78
:1028680000F2AF80DFE802F008AD3BAD38ADADADAA
:1028780005004FF4004004E0FEF780FE002800F059
:10288800A280626A224B33F81220B0FBF2F365682B
:1028980005EB4501994200F29880B3EB053F00F241
:1028A8009680002633463146FDF792FC090241EA3C
:1028B800106100026B08C0182A46334641F1000136
:1028C800FDF786FCA0F54072124B9A4200F2818017
:1028D8002368D860304662E0FEF70AFDCEE70E486E
:1028E800CFE7082A77D8DFE802F0193905763C7671
:1028F80076761D00084815E0F369FFCF0080004098
:10290800003801400044004000480040004C0040AE
:10291800E8370008FFFC0F000024F400FEF72EFE45
:1029280000285AD0626A324B33F81230B0FBF3F009
:102938006268530803EB4003B3FBF2F3A3F1100101
:102948004FF6EF7291424AD89AB222F00F02C3F3BF
:10295800420313432268D360002020E0FEF720FEE4
:10296800DEE7FEF7C5FCDBE7224803E0FEF706FEDC
:10297800002838D0626A1E4B33F81230B0FBF3F0EF
:10298800636800EB5300B0FBF3F0A0F110024FF6C0
:10299800EF739A4229D8236880B2D86000200123B7
:1029A800A4F86A30A4F8683000236367A36770BD91
:1029B800FEF7F6FDDCE7FEF79BFCD9E74FF4004095
:1029C800D8E70120EBE70020E9E70120E7E701204D
:1029D800E5E70120E3E70120E1E70020DFE7012048
:1029E800DDE70120DBE70020D9E70120D7E700BFBA
:1029F800E83700080024F400836A13F0080F06D0B3
:102A08000268536823F40043816B0B435360836A65
:102A180013F0010F06D00268536823F40033C16A2B
:102A28000B435360836A13F0020F06D002685368A1
:102A380023F48033016B0B435360836A13F0040F54
:102A480006D00268536823F48023416B0B4353601C
:102A5800836A13F0100F06D00268936823F480533A
:102A6800C16B0B439360836A13F0200F06D0026892
:102A7800936823F40053016C0B439360836A13F04B
:102A8800400F0AD00268536823F48013416C0B434B
:102A98005360436CB3F5801F0BD0836A13F0800F2B
:102AA80006D00268536823F40023C16C0B435360BB
:102AB80070470268536823F4C003816C0B4353606A
:102AC800EBE72DE9F84305460E4617469946DDF82B
:102AD80020802B68DC6936EA04040CBF012400243A
:102AE800BC4236D1B8F1FF3FF3D0FEF75DF9A0EB59
:102AF8000900404530D8B8F1000F2FD02B681A686C
:102B080012F0040FE5D0802EE3D0402EE1D0DA6930
:102B180012F0080F11D1DA6912F4006FD9D04FF40E
:102B280000621A622846FFF799FD2023C5F8903005
:102B3800002385F8843003200CE008241C62284612
:102B4800FFF78CFDC5F89040002385F884300120FC
:102B580000E00020BDE8F8830320FBE70320F9E745
:102B680030B583B004460023C0F89030FEF71CF956
:102B780005462268126812F0080F10D123681B68F6
:102B880013F0040F28D12023C4F88830C4F88C30FF
:102B98000020E066206784F8840003B030BD6FF041
:102BA8007E430093034600224FF400112046FFF7AE
:102BB80088FF0028E2D0226852E8003F23F0800313
:102BC80042E800310029F6D12023C4F888300023D8
:102BD80084F884300320E0E76FF07E4300932B46AF
:102BE80000224FF480012046FFF76BFF0028CAD06F
:102BF800226852E8003F23F4907342E8003100292C
:102C0800F6D1226802F1080353E8003F23F00103DC
:102C1800083242E800310029F3D12023C4F88C306F
:102C2800002384F884300320B7E778B310B504464E
:102C3800D0F888300BB32423C4F88830226813688E
:102C480023F001031360A36AE3B92046FFF732FDBE
:102C5800012811D02268536823F4904353602268F6
:102C6800936823F02A0393602268136843F00103F2
:102C780013602046FFF774FF10BD80F88430FFF71B
:102C880093FCD8E72046FFF7B7FEDEE70120704740
:102C9800436E2BB90123A0F86A30A0F8683070475A
:102CA80030B403689A68C2F342629968490F094DC3
:102CB8006B5CDB00084C615C93FBF1F3A0F86A30B5
:102CC800AB5CDB00A25C93FBF2F3A0F8683030BC8D
:102CD800704700BF083800080038000890F88430B2
:102CE800012B18D0012380F884302423C0F88830C1
:102CF80003681A68196821F00101196022F000526E
:102D08000023436601680A602022C0F8882080F802
:102D18008430184670470220704738B590F88430E0
:102D2800012B1DD00446012380F884302423C0F8E9
:102D3800883003681D681A6822F001021A60026868
:102D4800936823F0604319439160FFF7A1FF23685C
:102D58001D602023C4F88830002084F8840038BD22
:102D68000220FCE738B590F88430012B1DD00446CA
:102D7800012380F884302423C0F8883003681D6854
:102D88001A6822F001021A600268936823F06063EF
:102D980019439160FFF77CFF23681D602023C4F866
:102DA8008830002084F8840038BD0220FCE7000049
:102DB80008B50F480F4B0360002343608360C3606E
:102DC80003744374837410224261012282610221D8
:102DD800C161016242628262C262026343638363C9
:102DE800C36300F0D3F900B908BDFDF751FAFBE75A
:102DF8002C0100200064004010B598B00446002162
:102E080013911491159116911791442202A800F07C
:102E180044FB22681A4B9A4201D018B010BD4FF4F7
:102E2800805302934FF000730E9302A8FEF7CAFB7B
:102E380010BB144B9A6D42F000729A659A6D02F0BD
:102E480000720092009ADA6C42F00102DA64DB6CDC
:102E580003F001030193019B4FF4C0531393022322
:102E680014930023159316930923179313A94FF06E
:102E78009040FEF719FDD0E7FDF70AFAD9E700BF41
:102E8800006400400010024008B51048104B036071
:102E98004FF482734360002383604FF4E062C260A2
:102EA800036143614FF4007282611022C2610362C0
:102EB800436283620722C26203630823436300F00C
:102EC8004FFA00B908BDFDF7E3F9FBE790010020D0
:102ED8000030014000B589B00023039304930593A3
:102EE800069307930268124B9A4202D009B05DF824
:102EF80004FB03F560431A6E42F480521A661A6E98
:102F080002F480520192019ADA6C42F00202DA6409
:102F1800DB6C03F002030293029B38230393022322
:102F280004930523079303A90248FEF7BDFCDDE7D8
:102F380000300140000400480268094B9A4200D062
:102F4800704782B003F564431A6E42F400621A6651
:102F58001B6E03F400630193019B02B0704700BF2E
:102F6800002C0140F0B589B0002303930493059326
:102F78000693079302681F4B9A4201D009B0F0BD2F
:102F880003F56443DA6C42F00202DA64DA6C02F0A8
:102F980002020192019ADA6C42F00102DA64DB6CF7
:102FA80003F001030293029B4FF4C04303930225ED
:102FB800049506260796104F03A93846FEF774FCB9
:102FC8004FF40043039304950024059406940423C6
:102FD800079303A93846FEF767FC4FF4E0630393B1
:102FE800049505940694079603A94FF09040FEF7C0
:102FF8005BFCC3E7002C01400004004810B59CB0FE
:103008000024189419941A941B94159416941794E0
:103018000E940F94109411941294139414943422CF
:10302800214601A800F039FA3C483D4B03601023C3
:103038004360202383604FF47A73C3600461446162
:103048008461FEF7EDFF002850D14FF480531893A8
:1030580018A93248FFF734F900284AD12F48FFF75A
:103068000FF8002848D1002315931693179315A934
:103078002A48FFF7C1F9002841D160230E930022A6
:103088000F92109211921292139214920EA9234841
:10309800FFF76CF8002835D104220EA91F48FFF766
:1030A80065F8002831D108220EA91C48FFF75EF800
:1030B80070BB002301930293039314220492059397
:1030C8004FF4005206920793089309934FF0007249
:1030D8000A920B930C930D9301A91048FFF7D6F9A8
:1030E800C8B90E48FFF73EFF1CB010BDFDF7D0F879
:1030F800ABE7FDF7CDF8B1E7FDF7CAF8B3E7FDF7A1
:10310800C7F8BAE7FDF7C4F8C6E7FDF7C1F8CAE79C
:10311800FDF7BEF8CDE7FDF7BBF8E2E7F4010020C4
:10312800002C014010B4154B03640168D1F88020CD
:1031380022F4F812446B42EA0442C1F88020104A93
:1031480042640168D1F8802022F07062846B42EA00
:103158000462C1F880200B4A8264D832C264D83233
:1031680002651832426502E0002243F8042B064A41
:103178009342F9D95DF8044B704700BF00A40040A2
:1031880070A40040B0A400404FA70040002800F001
:10319800E38038B5044690F85C30D3B1226893696F
:1031A80023F010039361FDF7FFFD054623689A6934
:1031B80012F0080F12D0FDF7F7FD401B0A28F5D9C9
:1031C800236E43F001032366032384F85C30012057
:1031D80038BD80F85D30FFF70FFEDFE79A6942F0EF
:1031E80001029A61FDF7E0FD054623689A6912F02D
:1031F800010F0DD1FDF7D8FD401B0A28F5D9236E24
:1032080043F001032366032384F85C300120DFE7E1
:103218009A6942F002029A612268504B9A4242D05F
:10322800237C012B45D02268936943F040039361C6
:10323800637C012B43D02268936923F48043936114
:10324800A37C012B41D02268936943F48053936196
:103258002268936923F44073A1680B439361226841
:10326800936923F0A40393612268136923F0100380
:103278001361E368012B2ED0002B31D0022B54D0E0
:103288002268936943F0800393612268136943F0CD
:1032980010031361E368032B22D12268936943F07A
:1032A800200393611CE06268A3F58063C3F80025DE
:1032B800B6E72268936923F040039361B8E7226870
:1032C800936943F480439361BAE72268936923F4CE
:1032D80080539361BCE72268936943F004039361C8
:1032E800A3695A1EE369013B1B0243EA4263226A4F
:1032F800013A13436269013A216843EA0243CB6108
:10330800A368B3F5407F16D02268D2F8C030E16BCD
:103318000B43C2F8C0302046FFF704FF0020A06529
:103328002066012384F85C3052E72268936943F0F1
:1033380020039361D4E7A36A013BE26A013A43EAB6
:103348000223226B013A43EA0213626A013A2168B6
:1033580043EA0243CB60D7E701207047006400408E
:1033680000286FD010B50446436A33B94368B3F5F3
:10337800827F05D00023C36102E00023036143611B
:103388000023A36294F85D30002B52D0022384F806
:103398005D302268136823F040031360E368B3F5D7
:1033A800E06F4CD90022B3F5706F04D0B3F5E06F2D
:1033B80001D00023A362636803F48273A16801F457
:1033C80004410B43216901F002010B43616901F0DB
:1033D80001010B43A16901F400710B43E16901F09C
:1033E80038010B43216A01F080010B43A16A01F403
:1033F800005120680B430360638B03F00403616A88
:1034080001F010010B43616B01F008010B43E16807
:1034180001F470610B4321681A434A602268D3693A
:1034280023F40063D36100202066012384F85D3013
:1034380010BD84F85C302046FFF74CFDA6E74FF43A
:103448008052B0E7012070470D488546FFF76EF8B7
:103458000C480D490D4A002302E0D458C4500433E7
:10346800C4188C42F9D30A4A0A4C002301E01360BD
:103478000432A242FBD300F019F8FCF743FFFEE741
:1034880000800020000000200C00002020380008E8
:103498000C00002040020020FEE70244034693424D
:1034A80000D1704703F8011BF9E7000070B50D4D16
:1034B8000D4C641BA4100026A64209D10B4D0C4CE0
:1034C80000F076F9641BA4100026A64205D170BD51
:1034D80055F8043B98470136EEE755F8043B984702
:1034E8000136F2E7183800081838000818380008BC
:1034F8001C3800082DE9F047089D0C46002B4ED1DA
:1035080094468C458646B2FA82F262D94AB1C2F133
:103518002003914020FA03F30CFA02FC194300FA45
:1035280002FE4FEA1C471FFA8CF6B1FBF7F44FEA8C
:103538001E4307FB141143EA014304FB06F19942B9
:103548000AD91CEB030304F1FF3080F01281994281
:1035580040F20F81023C6344591A1FFA8EF3B1FB03
:10356800F7F007FB101143EA014300FB06F69E4201
:103578000AD91CEB030300F1FF3180F0FC809E4266
:1035880040F2F980634402389B1B40EA0440002162
:103598001DB1D3400022C5E90032BDE8F0878B4257
:1035A80005D90DB1C5E9000100210846F5E7B3FAD0
:1035B80083F1002946D1A34202D39042C0F0F080A3
:1035C800861A64EB03030120002DE6D0C5E90063E9
:1035D800E3E7002A40F09080A1EB0C044FEA1C4876
:1035E8001FFA8CF70121B4FBF8F64FEA1E4308FBDB
:1035F800164443EA044307FB06F0984208D91CEB3B
:10360800030306F1FF3402D2984200F2CD80264629
:103618001C1A1FFA8EF3B4FBF8F008FB104443EAB7
:10362800044300FB07F79F4208D91CEB030300F192
:10363800FF3402D29F4200F2B0802046DB1B40EAF2
:103648000640A5E7C1F120068B4022FA06F71F4382
:1036580020FA06FC04FA01F343EA0C03F44000FAEA
:1036680001F8380C4FEA1349B4FBF0FE1FFA87FC47
:1036780000FB1E4449EA04440EFB0CF9A14502FA7A
:1036880001F20AD93C190EF1FF3A80F08480A14575
:1036980040F28180AEF1020E3C44A4EB09041FFA0B
:1036A80083F9B4FBF0F300FB134449EA044403FB39
:1036B8000CFCA44507D93C1903F1FF3067D2A44597
:1036C80065D9023B3C4443EA0E40A0FB0293A4EBBD
:1036D8000C049C42CE469C4651D34ED055B1B8EB13
:1036E8000E0364EB0C0404FA06F6CB401E43CC40F0
:1036F800C5E90064002150E7C2F1200320FA03F174
:103708000CFA02FC24FA03F394400C434FEA1C48D9
:1037180000FA02FE1FFA8CF7B3FBF8F008FB103131
:10372800230C43EA014300FB07F1994208D91CEB3B
:10373800030300F1FF362CD299422AD90238634498
:103748005B1AA4B2B3FBF8F108FB113344EA034453
:1037580001FB07F3A34208D91CEB040401F1FF366F
:1037680013D2A34211D902396444E41A41EA004150
:1037780039E70446F0E6084606E7C845AED2B9EB95
:10378800020E63EB070C0138A8E73146EDE7034664
:1037980099E73046D4E7D6467FE7634402384DE7D9
:1037A8000646234608460FE7023E634430E700BF5B
:1037B800F8B500BFF8BC08BC9E467047F8B500BF16
:0837C800F8BC08BC9E467047E6
:1037D00000000000010203040000000000000000DF
:1037E00001020304060708090100020004000600A4
:1037F00008000A000C0010002000400080000001BA
:10380000080402040801010101010103070100008D
:08381000ECFCFF7F0100000049
:04381800750200082D
:04381C004D02000851
:0C38200001000000100000000024F40073
:04000005080034516A
:00000001FF
